:020000020000FC
:100000000C9404000C94190004E00EBF0FE50DBF22
:100010000E945A000E9467000E9427000E948100EF
:100020000E94400021F40E9490000E9467000C94FE
:100030000C000F930FB70F931F9300916A00039565
:1000400000936A000F910FBF0F911F9118950E94A6
:100050002A0008950091600017E00E943900009383
:1000600060000091610015E00E943900009361007A
:10007000089500601AF0011711F4025003950895D5
:10008000FF27E0E60E944900FF27E2E60E944900C0
:10009000089511910E9453001081E5E6E10F10814F
:1000A000102B1083089501E01A951AF0000F0C949C
:1000B0005400089500E007B90FEF07BB01BB03E050
:1000C00005BF00E40BBF04E002BB7894089500274D
:1000D0000093600002E0009361000E9472000E94A1
:1000E0008100089502EF00936A0000916A00077092
:1000F00003500AF40D5F009363000E5F00936200EB
:100100000895FF27E5E6002715E001931A95208161
:10011000E1F70895FC00E000CA00BAA3907E7A00DF
:100120001FEF5CE0F1E0E4E10E9498000C94040011
:100130000491003029F00E94A70031965A95C1F72A
:100140003FEF3A95F1F74A95D9F7F7CF08950FEFBA
:1001500008BB0E94B500002708BB0E94B5001A9595
:10016000103009F0F4CF1FEF089524912A95F1F78C
:020170000895F0
:00000001FF
