:020000020000FC
:100000000C9404000C94190004E00EBF0FE50DBF22
:100010000E945F000E946E000E9427000E948500DF
:100020000E94450021F40E9493000E946E000C94EF
:100030000C000F930FB70F931F9300916A00039565
:1000400000936A000F910FBF0F911F911895369A78
:1000500036990C94280005B10E942F000895009154
:10006000600017E00E943E00009360000091610074
:1000700015E00E943E0000936100089500601AF0B0
:10008000011711F4025003950895FF27E0E60E943E
:100090004E00FF27E2E60E944E00089511910E9453
:1000A00058001081E5E6E10F1081102B10830895B0
:1000B00001E01A951AF0000F0C945900089500E21F
:1000C00007B900E806B90FEF07BB01BB03E005BFA6
:1000D00000E40BBF04E002BB78940895002700936E
:1000E000600002E0009361000E9479000E94850098
:1000F000089500916A00077003500AF40D5F0093A1
:1001000063000E5F009362000895FF27E5E6002775
:1001100015E001931A95E9F70895FC00E000CA0084
:10012000BAA3907E7A001FEF5CE0F1E0EAE10E9462
:100130009B000C9404000491003029F00E94AA0056
:1001400031965A95C1F73FEF3A95F1F74A95D9F7AD
:10015000F7CF08950FEF08BB0E94B800002708BB37
:100160000E94B8001A95103009F0F4CF1FEF0895DF
:0801700024912A95F1F708958E
:00000001FF
