:020000020000FC
:1000000004E00EBF0FE50DBF1FEF17BBF2E0E0E00D
:1000100005910030D9F3003261F00154FF93EF9362
:10002000F2E0E0EAE00F0491EF91FF910E941A00E4
:10003000EFCFEECF003871F0000F10F40E942300D4
:100040000E942300F7CF11E02FEF28BB20E028BB50
:100050001A95D1F708954AE05FE15A95F1F74A956C
:04006000D9F708952F
:020200004200BA
:1002A0006088A8904028D0082078B048E0A0F06886
:0C02B000D85010C030187098B8C800007A
:00000001FF
